{
  "contractName": "ticketingSystem",
  "abi": [
    {
      "constant": true,
      "inputs": [],
      "name": "nextVenueId",
      "outputs": [
        {
          "name": "",
          "type": "uint256"
        }
      ],
      "payable": false,
      "stateMutability": "view",
      "type": "function"
    },
    {
      "constant": true,
      "inputs": [],
      "name": "nextArtistId",
      "outputs": [
        {
          "name": "",
          "type": "uint256"
        }
      ],
      "payable": false,
      "stateMutability": "view",
      "type": "function"
    },
    {
      "constant": true,
      "inputs": [],
      "name": "nextTicketId",
      "outputs": [
        {
          "name": "",
          "type": "uint256"
        }
      ],
      "payable": false,
      "stateMutability": "view",
      "type": "function"
    },
    {
      "constant": true,
      "inputs": [],
      "name": "nextConcertId",
      "outputs": [
        {
          "name": "",
          "type": "uint256"
        }
      ],
      "payable": false,
      "stateMutability": "view",
      "type": "function"
    },
    {
      "constant": true,
      "inputs": [
        {
          "name": "",
          "type": "uint256"
        }
      ],
      "name": "artistsRegister",
      "outputs": [
        {
          "name": "name",
          "type": "bytes32"
        },
        {
          "name": "artistCategory",
          "type": "int256"
        },
        {
          "name": "total_ticket",
          "type": "int256"
        },
        {
          "name": "owner",
          "type": "address"
        }
      ],
      "payable": false,
      "stateMutability": "view",
      "type": "function"
    },
    {
      "constant": true,
      "inputs": [
        {
          "name": "",
          "type": "uint256"
        }
      ],
      "name": "venuesRegister",
      "outputs": [
        {
          "name": "name",
          "type": "bytes32"
        },
        {
          "name": "capacity",
          "type": "uint256"
        },
        {
          "name": "standardComission",
          "type": "int256"
        },
        {
          "name": "owner",
          "type": "address"
        }
      ],
      "payable": false,
      "stateMutability": "view",
      "type": "function"
    },
    {
      "constant": true,
      "inputs": [
        {
          "name": "",
          "type": "uint256"
        }
      ],
      "name": "concertsRegister",
      "outputs": [
        {
          "name": "concertDate",
          "type": "uint256"
        },
        {
          "name": "venueId",
          "type": "uint256"
        },
        {
          "name": "ticketPrice",
          "type": "uint256"
        },
        {
          "name": "artistId",
          "type": "uint256"
        },
        {
          "name": "totalSoldTicket",
          "type": "uint256"
        },
        {
          "name": "totalMoneyCollected",
          "type": "uint256"
        },
        {
          "name": "validatedByArtist",
          "type": "bool"
        },
        {
          "name": "validatedByVenue",
          "type": "bool"
        }
      ],
      "payable": false,
      "stateMutability": "view",
      "type": "function"
    },
    {
      "constant": false,
      "inputs": [
        {
          "name": "name1",
          "type": "bytes32"
        },
        {
          "name": "cat",
          "type": "int256"
        }
      ],
      "name": "createArtist",
      "outputs": [
        {
          "name": "",
          "type": "uint256"
        }
      ],
      "payable": false,
      "stateMutability": "nonpayable",
      "type": "function"
    },
    {
      "constant": false,
      "inputs": [
        {
          "name": "i",
          "type": "uint256"
        },
        {
          "name": "newname",
          "type": "bytes32"
        },
        {
          "name": "newcat",
          "type": "int256"
        },
        {
          "name": "newowner",
          "type": "address"
        }
      ],
      "name": "modifyArtist",
      "outputs": [],
      "payable": false,
      "stateMutability": "nonpayable",
      "type": "function"
    },
    {
      "constant": false,
      "inputs": [
        {
          "name": "name1",
          "type": "bytes32"
        },
        {
          "name": "cap",
          "type": "uint256"
        },
        {
          "name": "com",
          "type": "int256"
        }
      ],
      "name": "createVenue",
      "outputs": [
        {
          "name": "",
          "type": "uint256"
        }
      ],
      "payable": false,
      "stateMutability": "nonpayable",
      "type": "function"
    },
    {
      "constant": false,
      "inputs": [
        {
          "name": "i",
          "type": "uint256"
        },
        {
          "name": "newname",
          "type": "bytes32"
        },
        {
          "name": "newcap",
          "type": "uint256"
        },
        {
          "name": "newcom",
          "type": "int256"
        },
        {
          "name": "newowner",
          "type": "address"
        }
      ],
      "name": "modifyVenue",
      "outputs": [],
      "payable": false,
      "stateMutability": "nonpayable",
      "type": "function"
    },
    {
      "constant": false,
      "inputs": [
        {
          "name": "_artistId",
          "type": "uint256"
        },
        {
          "name": "_venueId",
          "type": "uint256"
        },
        {
          "name": "_concertDate",
          "type": "uint256"
        },
        {
          "name": "_ticketPrice",
          "type": "uint256"
        }
      ],
      "name": "createConcert",
      "outputs": [
        {
          "name": "concertNumber",
          "type": "uint256"
        }
      ],
      "payable": false,
      "stateMutability": "nonpayable",
      "type": "function"
    },
    {
      "constant": false,
      "inputs": [
        {
          "name": "_concertId",
          "type": "uint256"
        }
      ],
      "name": "validateConcert",
      "outputs": [],
      "payable": false,
      "stateMutability": "nonpayable",
      "type": "function"
    },
    {
      "constant": false,
      "inputs": [
        {
          "name": "_concertId",
          "type": "uint256"
        },
        {
          "name": "ad",
          "type": "address"
        }
      ],
      "name": "emitTicket",
      "outputs": [
        {
          "name": "ticketNumber",
          "type": "uint256"
        }
      ],
      "payable": false,
      "stateMutability": "nonpayable",
      "type": "function"
    },
    {
      "constant": false,
      "inputs": [
        {
          "name": "_ticketId",
          "type": "uint256"
        }
      ],
      "name": "useTicket",
      "outputs": [],
      "payable": true,
      "stateMutability": "payable",
      "type": "function"
    },
    {
      "constant": false,
      "inputs": [
        {
          "name": "_concertId",
          "type": "uint256"
        }
      ],
      "name": "buyTicket",
      "outputs": [],
      "payable": true,
      "stateMutability": "payable",
      "type": "function"
    },
    {
      "constant": false,
      "inputs": [
        {
          "name": "_ticketId",
          "type": "uint256"
        },
        {
          "name": "_newOwner",
          "type": "address"
        }
      ],
      "name": "transferTicket",
      "outputs": [],
      "payable": false,
      "stateMutability": "nonpayable",
      "type": "function"
    },
    {
      "constant": true,
      "inputs": [
        {
          "name": "owner",
          "type": "address"
        }
      ],
      "name": "getBalance",
      "outputs": [
        {
          "name": "",
          "type": "uint256"
        }
      ],
      "payable": false,
      "stateMutability": "view",
      "type": "function"
    },
    {
      "constant": false,
      "inputs": [
        {
          "name": "_concertId",
          "type": "uint256"
        },
        {
          "name": "_cashOutAddress",
          "type": "address"
        }
      ],
      "name": "cashOutConcert",
      "outputs": [],
      "payable": false,
      "stateMutability": "nonpayable",
      "type": "function"
    }
  ],
  "bytecode": "0x60806040526001805560016003556001600555600160075534801561002357600080fd5b506115e9806100336000396000f3fe608060405260043610610107576000357c0100000000000000000000000000000000000000000000000000000000900463ffffffff1680631895125a1461010c578063216f7c571461017b57806326606448146101de5780632c1037bf1461020c5780632fd0f12a1461023757806347300ecb14610262578063486ff9ae146102bb5780636031a52f1461032a578063679ebf1a1461035557806367dd74ca146103b05780636874208c146103de57806392fc3b081461040957806397af293014610444578063a88ae815146104d4578063aaae87b414610564578063d6ecc2b1146105dd578063e03536f314610638578063f02eafd1146106a5578063f8b2cb4f1461072d575b600080fd5b34801561011857600080fd5b506101796004803603608081101561012f57600080fd5b81019080803590602001909291908035906020019092919080359060200190929190803573ffffffffffffffffffffffffffffffffffffffff169060200190929190505050610792565b005b34801561018757600080fd5b506101c86004803603606081101561019e57600080fd5b8101908080359060200190929190803590602001909291908035906020019092919050505061088f565b6040518082815260200191505060405180910390f35b61020a600480360360208110156101f457600080fd5b8101908080359060200190929190505050610960565b005b34801561021857600080fd5b50610221610a3c565b6040518082815260200191505060405180910390f35b34801561024357600080fd5b5061024c610a42565b6040518082815260200191505060405180910390f35b34801561026e57600080fd5b506102a56004803603604081101561028557600080fd5b810190808035906020019092919080359060200190929190505050610a48565b6040518082815260200191505060405180910390f35b3480156102c757600080fd5b50610314600480360360408110156102de57600080fd5b8101908080359060200190929190803573ffffffffffffffffffffffffffffffffffffffff169060200190929190505050610b14565b6040518082815260200191505060405180910390f35b34801561033657600080fd5b5061033f610cb5565b6040518082815260200191505060405180910390f35b34801561036157600080fd5b506103ae6004803603604081101561037857600080fd5b8101908080359060200190929190803573ffffffffffffffffffffffffffffffffffffffff169060200190929190505050610cbb565b005b6103dc600480360360208110156103c657600080fd5b8101908080359060200190929190505050610d84565b005b3480156103ea57600080fd5b506103f3610f9e565b6040518082815260200191505060405180910390f35b34801561041557600080fd5b506104426004803603602081101561042c57600080fd5b8101908080359060200190929190505050610fa4565b005b34801561045057600080fd5b5061047d6004803603602081101561046757600080fd5b810190808035906020019092919050505061112b565b604051808581526020018481526020018381526020018273ffffffffffffffffffffffffffffffffffffffff1673ffffffffffffffffffffffffffffffffffffffff16815260200194505050505060405180910390f35b3480156104e057600080fd5b5061050d600480360360208110156104f757600080fd5b810190808035906020019092919050505061117b565b604051808581526020018481526020018381526020018273ffffffffffffffffffffffffffffffffffffffff1673ffffffffffffffffffffffffffffffffffffffff16815260200194505050505060405180910390f35b34801561057057600080fd5b506105db600480360360a081101561058757600080fd5b8101908080359060200190929190803590602001909291908035906020019092919080359060200190929190803573ffffffffffffffffffffffffffffffffffffffff1690602001909291905050506111cb565b005b3480156105e957600080fd5b506106366004803603604081101561060057600080fd5b8101908080359060200190929190803573ffffffffffffffffffffffffffffffffffffffff1690602001909291905050506112e8565b005b34801561064457600080fd5b5061068f6004803603608081101561065b57600080fd5b810190808035906020019092919080359060200190929190803590602001909291908035906020019092919050505061136e565b6040518082815260200191505060405180910390f35b3480156106b157600080fd5b506106de600480360360208110156106c857600080fd5b81019080803590602001909291905050506114ff565b6040518089815260200188815260200187815260200186815260200185815260200184815260200183151515158152602001821515151581526020019850505050505050505060405180910390f35b34801561073957600080fd5b5061077c6004803603602081101561075057600080fd5b81019080803573ffffffffffffffffffffffffffffffffffffffff169060200190929190505050611561565b6040518082815260200191505060405180910390f35b60008085815260200190815260200160002060030160009054906101000a900473ffffffffffffffffffffffffffffffffffffffff1673ffffffffffffffffffffffffffffffffffffffff163373ffffffffffffffffffffffffffffffffffffffff1614151561080157600080fd5b826000808681526020019081526020016000206000018190555081600080868152602001908152602001600020600101819055508060008086815260200190815260200160002060030160006101000a81548173ffffffffffffffffffffffffffffffffffffffff021916908373ffffffffffffffffffffffffffffffffffffffff16021790555050505050565b60008360026000600354815260200190815260200160002060000181905550826002600060035481526020019081526020016000206001018190555081600260006003548152602001908152602001600020600201819055503360026000600354815260200190815260200160002060030160006101000a81548173ffffffffffffffffffffffffffffffffffffffff021916908373ffffffffffffffffffffffffffffffffffffffff16021790555060036000815480929190600101919050555060016003540390509392505050565b4260046000600660008581526020019081526020016000206002015481526020019081526020016000206000015414151561099a57600080fd5b3373ffffffffffffffffffffffffffffffffffffffff166006600083815260200190815260200160002060000160009054906101000a900473ffffffffffffffffffffffffffffffffffffffff1673ffffffffffffffffffffffffffffffffffffffff16141515610a0a57600080fd5b60016006600083815260200190815260200160002060000160146101000a81548160ff02191690831515021790555050565b60035481565b60015481565b60008260008060015481526020019081526020016000206000018190555081600080600154815260200190815260200160002060010181905550600080600060015481526020019081526020016000206002018190555033600080600154815260200190815260200160002060030160006101000a81548173ffffffffffffffffffffffffffffffffffffffff021916908373ffffffffffffffffffffffffffffffffffffffff1602179055506001600081548092919060010191905055506001805403905092915050565b600080600460008581526020019081526020016000206003015490503373ffffffffffffffffffffffffffffffffffffffff1660008083815260200190815260200160002060030160009054906101000a900473ffffffffffffffffffffffffffffffffffffffff1673ffffffffffffffffffffffffffffffffffffffff16141515610b9f57600080fd5b60075460066000600754815260200190815260200160002060010181905550600060066000600754815260200190815260200160002060000160146101000a81548160ff0219169083151502179055508360066000600754815260200190815260200160002060020181905550600160046000868152602001908152602001600020600401540160046000868152602001908152602001600020600401819055508260066000600754815260200190815260200160002060000160006101000a81548173ffffffffffffffffffffffffffffffffffffffff021916908373ffffffffffffffffffffffffffffffffffffffff16021790555060076000815480929190600101919050555060015491505092915050565b60075481565b3373ffffffffffffffffffffffffffffffffffffffff166006600084815260200190815260200160002060000160009054906101000a900473ffffffffffffffffffffffffffffffffffffffff1673ffffffffffffffffffffffffffffffffffffffff16141515610d2b57600080fd5b806006600084815260200190815260200160002060000160006101000a81548173ffffffffffffffffffffffffffffffffffffffff021916908373ffffffffffffffffffffffffffffffffffffffff1602179055505050565b600460008281526020019081526020016000206002015434141515610da857600080fd5b6004600082815260200190815260200160002060020154610dc833611561565b10151515610dd557600080fd5b600460008281526020019081526020016000206004015460026000600460008581526020019081526020016000206001015481526020019081526020016000206001015410151515610e2657600080fd5b346004600083815260200190815260200160002060050154016004600083815260200190815260200160002060050181905550600160046000838152602001908152602001600020600401540160046000838152602001908152602001600020600401819055506000610e998233610b14565b90506004600083815260200190815260200160002060020154600660008381526020019081526020016000206004018190555060016006600083815260200190815260200160002060000160146101000a81548160ff02191690831515021790555060006006600083815260200190815260200160002060030160006101000a81548160ff021916908315150217905550336006600083815260200190815260200160002060000160006101000a81548173ffffffffffffffffffffffffffffffffffffffff021916908373ffffffffffffffffffffffffffffffffffffffff1602179055508160066000838152602001908152602001600020600201819055505050565b60055481565b42600460008381526020019081526020016000206000015410151515610fc957600080fd5b3373ffffffffffffffffffffffffffffffffffffffff16600260006004600085815260200190815260200160002060010154815260200190815260200160002060030160009054906101000a900473ffffffffffffffffffffffffffffffffffffffff1673ffffffffffffffffffffffffffffffffffffffff1614156110795760016004600083815260200190815260200160002060060160016101000a81548160ff0219169083151502179055505b3373ffffffffffffffffffffffffffffffffffffffff166000806004600085815260200190815260200160002060030154815260200190815260200160002060030160009054906101000a900473ffffffffffffffffffffffffffffffffffffffff1673ffffffffffffffffffffffffffffffffffffffff1614156111285760016004600083815260200190815260200160002060060160006101000a81548160ff0219169083151502179055505b50565b60006020528060005260406000206000915090508060000154908060010154908060020154908060030160009054906101000a900473ffffffffffffffffffffffffffffffffffffffff16905084565b60026020528060005260406000206000915090508060000154908060010154908060020154908060030160009054906101000a900473ffffffffffffffffffffffffffffffffffffffff16905084565b6002600086815260200190815260200160002060030160009054906101000a900473ffffffffffffffffffffffffffffffffffffffff1673ffffffffffffffffffffffffffffffffffffffff163373ffffffffffffffffffffffffffffffffffffffff1614151561123b57600080fd5b826002600087815260200190815260200160002060010181905550816002600087815260200190815260200160002060020181905550806002600087815260200190815260200160002060030160006101000a81548173ffffffffffffffffffffffffffffffffffffffff021916908373ffffffffffffffffffffffffffffffffffffffff1602179055508360026000878152602001908152602001600020600001819055505050505050565b4260046000848152602001908152602001600020600001541015151561130d57600080fd5b8073ffffffffffffffffffffffffffffffffffffffff166108fc60046000858152602001908152602001600020600501549081150290604051600060405180830381858888f19350505050158015611369573d6000803e3d6000fd5b505050565b600042831015151561137f57600080fd5b600073ffffffffffffffffffffffffffffffffffffffff1660008087815260200190815260200160002060030160009054906101000a900473ffffffffffffffffffffffffffffffffffffffff1673ffffffffffffffffffffffffffffffffffffffff16141515156113f057600080fd5b600073ffffffffffffffffffffffffffffffffffffffff166002600086815260200190815260200160002060030160009054906101000a900473ffffffffffffffffffffffffffffffffffffffff1673ffffffffffffffffffffffffffffffffffffffff161415151561146257600080fd5b82600460006005548152602001908152602001600020600001819055508460046000600554815260200190815260200160002060030181905550836004600060055481526020019081526020016000206001018190555081600460006005548152602001908152602001600020600201819055506114e1600554610fa4565b60055490506001600560008282540192505081905550949350505050565b60046020528060005260406000206000915090508060000154908060010154908060020154908060030154908060040154908060050154908060060160009054906101000a900460ff16908060060160019054906101000a900460ff16905088565b60008073ffffffffffffffffffffffffffffffffffffffff168273ffffffffffffffffffffffffffffffffffffffff161415151561159e57600080fd5b8173ffffffffffffffffffffffffffffffffffffffff1631905091905056fea165627a7a723058206b5b175b61d847c9d4207d2f05c20647c8eb48d4c23d165b0abd08d8a2fa36150029",
  "source": "pragma solidity >=0.4.22<0.6.0;\r\n\r\nimport \"./SafeMath.sol\";\r\nimport \"./Address.sol\";\r\nimport \"./Counters.sol\";\r\n\r\ncontract ticketingSystem{\r\n\r\n\tusing SafeMath for uint256;\r\n    using Address for address;\r\n\tusing Counters for Counters.Counter;\r\n\r\n\t// ARTIST STRUCTURE\r\n\t// -------------------------------------------------------------------------------------- \r\n\tstruct Artist{\r\n\t\r\n\t\tbytes32 name;\r\n\t\tint artistCategory;\r\n\t\tint total_ticket;\r\n\t\taddress payable owner;\r\n\t}\r\n\t\r\n\tmapping(uint => Artist) public artistsRegister;\r\n\tuint public nextArtistId=1;\r\n\t\r\n\r\n\t// VENUE STRUCTURE\r\n\t// -------------------------------------------------------------------------------------- \r\n\t\r\n\tstruct Venue{\r\n\t\tbytes32 name;\r\n\t\tuint capacity;\r\n\t\tint standardComission;\r\n\t\taddress payable owner;\r\n\t}\r\n\t\r\n\tmapping(uint => Venue) public venuesRegister;\r\n\tuint public nextVenueId=1;\r\n\t\r\n\t\r\n\t// CONCERT STRUCTURE\r\n\t// -------------------------------------------------------------------------------------- \r\n\t\r\n\tstruct Concert{\r\n\t\tuint256 concertDate;\r\n\t\tuint venueId;\r\n\t\tuint ticketPrice;\r\n\t\tuint artistId;\r\n\t\tuint totalSoldTicket;\r\n\t\tuint totalMoneyCollected;\r\n\t\tbool validatedByArtist;\r\n\t\tbool validatedByVenue;\r\n\t}\r\n\t\r\n\tmapping(uint => Concert) public concertsRegister;\r\n\tuint public nextConcertId=1;\r\n\t\r\n\t// TICKET STRUCTURE\r\n\t// -------------------------------------------------------------------------------------- \r\n\t\r\n\tstruct Ticket{\r\n\t\taddress payable owner;\r\n\t\tbool isAvailable;\r\n\t\tuint ticketNumber;\r\n\t\tuint concertId;\r\n\t\tbool isAvailableForSale;\r\n\t\tuint amountPaid;\r\n\t}\r\n\t\r\n\tmapping(uint => Ticket) ticketsRegister;\r\n\tuint public nextTicketId=1;\r\n\t\r\n\r\n\t\r\n\t// --------------------------------------------------------------------------------------\r\n\t\r\n\tfunction createArtist(bytes32 name1,int cat) public returns (uint){\r\n\r\n\t\tartistsRegister[nextArtistId].name=name1;\r\n\t\tartistsRegister[nextArtistId].artistCategory=cat;\r\n\t\tartistsRegister[nextArtistId].total_ticket=0;\r\n\t\tartistsRegister[nextArtistId].owner=msg.sender;\r\n\r\n\t\tnextArtistId++;\r\n\t\t\r\n\t\treturn(nextArtistId-1);\r\n\t}\r\n\t\r\n\tfunction modifyArtist(uint i, bytes32 newname, int newcat, address payable newowner) public{\r\n\t\trequire(msg.sender==artistsRegister[i].owner);\r\n\t\tartistsRegister[i].name=newname;\r\n\t\tartistsRegister[i].artistCategory=newcat;\r\n\t\tartistsRegister[i].owner=newowner;\r\n\t}\r\n\t\r\n\t\r\n\t// --------------------------------------------------------------------------------------\r\n\t\r\n\tfunction createVenue(bytes32 name1, uint cap, int com) public returns(uint){\r\n\t\tvenuesRegister[nextVenueId].name=name1;\r\n\t\tvenuesRegister[nextVenueId].capacity=cap;\r\n\t\tvenuesRegister[nextVenueId].standardComission=com;\r\n\t\tvenuesRegister[nextVenueId].owner=msg.sender;\r\n\r\n\t\tnextVenueId++;\r\n\t\t\r\n\t\treturn(nextVenueId-1);\r\n\t}\r\n\r\n\tfunction modifyVenue(uint i, bytes32 newname, uint newcap, int newcom, address payable newowner) public{\r\n\t\trequire(msg.sender==venuesRegister[i].owner);\r\n\t\tvenuesRegister[i].capacity=newcap;\r\n\t\tvenuesRegister[i].standardComission=newcom;\r\n\t\tvenuesRegister[i].owner=newowner;\r\n\t\tvenuesRegister[i].name=newname;\r\n\t\t\r\n\t}\r\n\t\r\n\t\r\n\t// --------------------------------------------------------------------------------------\r\n\t\r\n\tfunction createConcert(uint _artistId, uint _venueId, uint _concertDate, uint _ticketPrice) public returns (uint concertNumber)\r\n\t{\r\n\t\trequire(_concertDate >= now);\r\n\t\trequire(artistsRegister[_artistId].owner != address(0));\r\n\t\trequire(venuesRegister[_venueId].owner != address(0));\r\n\r\n\t\tconcertsRegister[nextConcertId].concertDate = _concertDate;\r\n\t\tconcertsRegister[nextConcertId].artistId = _artistId;\r\n\t\tconcertsRegister[nextConcertId].venueId = _venueId;\r\n\t\tconcertsRegister[nextConcertId].ticketPrice = _ticketPrice;\r\n\r\n\t\tvalidateConcert(nextConcertId);\r\n\t\tconcertNumber = nextConcertId;\r\n\t\tnextConcertId +=1;\r\n\t}\r\n\r\n\tfunction validateConcert(uint _concertId) public\r\n\t{\r\n\t\trequire(concertsRegister[_concertId].concertDate >= now);\r\n\r\n\t\tif (venuesRegister[concertsRegister[_concertId].venueId].owner == msg.sender)\r\n\t\t{\r\n\t\tconcertsRegister[_concertId].validatedByVenue = true;\r\n\t\t}\r\n\t\tif (artistsRegister[concertsRegister[_concertId].artistId].owner == msg.sender)\r\n\t\t{\r\n\t\t\tconcertsRegister[_concertId].validatedByArtist = true;\r\n\t\t}\r\n\t}\r\n\t\r\n\tfunction emitTicket(uint _concertId, address payable ad) public returns (uint ticketNumber)\r\n\t{\r\n\t\tuint art=concertsRegister[_concertId].artistId;\r\n\t\trequire(artistsRegister[art].owner==msg.sender);\r\n\t\t\r\n\t\tticketsRegister[nextTicketId].ticketNumber=nextTicketId;\r\n\t\tticketsRegister[nextTicketId].isAvailable=false;\r\n\t\tticketsRegister[nextTicketId].concertId=_concertId;\r\n\t\tconcertsRegister[_concertId].totalSoldTicket=concertsRegister[_concertId].totalSoldTicket+1;\r\n\t\tticketsRegister[nextTicketId].owner=ad;\r\n\t\tnextTicketId++;\r\n\t\tticketNumber=nextArtistId;\r\n\t\r\n\r\n\t}\r\n\t\r\n\tfunction useTicket(uint _ticketId) public payable\r\n\t{\r\n\t\trequire(concertsRegister[ticketsRegister[_ticketId].concertId ].concertDate == now);\r\n\t\trequire(ticketsRegister[_ticketId].owner==msg.sender);\r\n\t\t\r\n\t\tticketsRegister[_ticketId].isAvailable=true;\r\n\t}\r\n\t\r\n\t\r\n\t// --------------------------------------------------------------------------------------\r\n\t\r\n\tfunction buyTicket(uint _concertId) public payable\r\n\t{\r\n\t\trequire(msg.value==concertsRegister[_concertId].ticketPrice);\r\n\t\trequire(getBalance(msg.sender)>=concertsRegister[_concertId].ticketPrice);\r\n\t\trequire(venuesRegister[concertsRegister[_concertId].venueId].capacity>=concertsRegister[_concertId].totalSoldTicket);\r\n\t\tconcertsRegister[_concertId].totalMoneyCollected=concertsRegister[_concertId].totalMoneyCollected+msg.value;\r\n\t\tconcertsRegister[_concertId].totalSoldTicket=concertsRegister[_concertId].totalSoldTicket+1;\r\n\t\tuint n= emitTicket(_concertId,msg.sender);\r\n\t\tticketsRegister[n].amountPaid=concertsRegister[_concertId].ticketPrice;\r\n\t\tticketsRegister[n].isAvailable=true;\r\n\t\tticketsRegister[n].isAvailableForSale=false;\r\n\t\tticketsRegister[n].owner=msg.sender;\r\n\t\tticketsRegister[n].concertId=_concertId;\r\n\t}\r\n\t\r\n\t\r\n\tfunction transferTicket(uint _ticketId, address payable _newOwner) public\r\n\t{\r\n\t\trequire(ticketsRegister[_ticketId].owner==msg.sender);\r\n\t\tticketsRegister[_ticketId].owner=_newOwner;\r\n\t\t\r\n\t}\r\n\t\r\n\t// --------------------------------------------------------------------------------------\r\n\t\r\n\t\r\n\tfunction getBalance(address owner) public view returns (uint256) {\r\n\r\n        require(owner != address(0));\r\n        return address(owner).balance;\r\n\r\n    }\r\n\tfunction cashOutConcert(uint _concertId, address payable _cashOutAddress) public\r\n\t{\r\n\t\trequire(concertsRegister[_concertId ].concertDate >= now);\r\n\t\t_cashOutAddress.transfer(concertsRegister[_concertId ].totalMoneyCollected);\r\n\t}\r\n\t\r\n}\r\n\r\n",
  "sourcePath": "C:/Users/irisj/Documents/ESILV/Annee 4/Blockchain Programming/TD7/contracts/ticketingSystem.sol",
  "compiler": {
    "name": "solc",
    "version": "0.5.0+commit.1d4f565a.Emscripten.clang"
  },
  "schemaVersion": "3.0.5",
  "updatedAt": "2019-03-28T21:56:22.516Z",
  "devdoc": {
    "methods": {}
  },
  "userdoc": {
    "methods": {}
  }
}